{
  "contractName": "MyDeFiProject",
  "abi": [
    {
      "inputs": [
        {
          "internalType": "address",
          "name": "daiAddress",
          "type": "address"
        }
      ],
      "stateMutability": "nonpayable",
      "type": "constructor"
    },
    {
      "inputs": [
        {
          "internalType": "address",
          "name": "recipient",
          "type": "address"
        },
        {
          "internalType": "uint256",
          "name": "amount",
          "type": "uint256"
        }
      ],
      "name": "foo",
      "outputs": [],
      "stateMutability": "nonpayable",
      "type": "function"
    },
    {
      "inputs": [
        {
          "internalType": "address",
          "name": "account",
          "type": "address"
        }
      ],
      "name": "balanceOf",
      "outputs": [
        {
          "internalType": "uint256",
          "name": "",
          "type": "uint256"
        }
      ],
      "stateMutability": "view",
      "type": "function"
    }
  ],
  "bytecode": "0x608060405234801561001057600080fd5b5060405161091b38038061091b8339818101604052810190610032919061008d565b806000806101000a81548173ffffffffffffffffffffffffffffffffffffffff021916908373ffffffffffffffffffffffffffffffffffffffff160217905550506100ff565b600081519050610087816100e8565b92915050565b60006020828403121561009f57600080fd5b60006100ad84828501610078565b91505092915050565b60006100c1826100c8565b9050919050565b600073ffffffffffffffffffffffffffffffffffffffff82169050919050565b6100f1816100b6565b81146100fc57600080fd5b50565b61080d8061010e6000396000f3fe608060405234801561001057600080fd5b5060043610610053576000357c01000000000000000000000000000000000000000000000000000000009004806370a0823114610058578063bd0d639f14610088575b600080fd5b610072600480360381019061006d91906104de565b6100a4565b60405161007f91906106a6565b60405180910390f35b6100a2600480360381019061009d9190610507565b610173565b005b60008060009054906101000a900473ffffffffffffffffffffffffffffffffffffffff1673ffffffffffffffffffffffffffffffffffffffff166370a08231836040518263ffffffff167c010000000000000000000000000000000000000000000000000000000002815260040161011c91906105f9565b60206040518083038186803b15801561013457600080fd5b505afa158015610148573d6000803e3d6000fd5b505050506040513d601f19601f8201168201806040525081019061016c919061056c565b9050919050565b3373ffffffffffffffffffffffffffffffffffffffff168273ffffffffffffffffffffffffffffffffffffffff1614156101e2576040517f08c379a00000000000000000000000000000000000000000000000000000000081526004016101d990610666565b60405180910390fd5b60008054906101000a900473ffffffffffffffffffffffffffffffffffffffff1673ffffffffffffffffffffffffffffffffffffffff1663095ea7b383836040518363ffffffff167c010000000000000000000000000000000000000000000000000000000002815260040161025992919061063d565b602060405180830381600087803b15801561027357600080fd5b505af1158015610287573d6000803e3d6000fd5b505050506040513d601f19601f820116820180604052508101906102ab9190610543565b5060008060009054906101000a900473ffffffffffffffffffffffffffffffffffffffff1673ffffffffffffffffffffffffffffffffffffffff1663dd62ed3e30856040518363ffffffff167c0100000000000000000000000000000000000000000000000000000000028152600401610326929190610614565b60206040518083038186803b15801561033e57600080fd5b505afa158015610352573d6000803e3d6000fd5b505050506040513d601f19601f82011682018060405250810190610376919061056c565b9050818110156103bb576040517f08c379a00000000000000000000000000000000000000000000000000000000081526004016103b290610686565b60405180910390fd5b60008054906101000a900473ffffffffffffffffffffffffffffffffffffffff1673ffffffffffffffffffffffffffffffffffffffff1663a9059cbb84846040518363ffffffff167c010000000000000000000000000000000000000000000000000000000002815260040161043292919061063d565b602060405180830381600087803b15801561044c57600080fd5b505af1158015610460573d6000803e3d6000fd5b505050506040513d601f19601f820116820180604052508101906104849190610543565b50505050565b60008135905061049981610792565b92915050565b6000815190506104ae816107a9565b92915050565b6000813590506104c3816107c0565b92915050565b6000815190506104d8816107c0565b92915050565b6000602082840312156104f057600080fd5b60006104fe8482850161048a565b91505092915050565b6000806040838503121561051a57600080fd5b60006105288582860161048a565b9250506020610539858286016104b4565b9150509250929050565b60006020828403121561055557600080fd5b60006105638482850161049f565b91505092915050565b60006020828403121561057e57600080fd5b600061058c848285016104c9565b91505092915050565b61059e816106d2565b82525050565b60006105b16022836106c1565b91506105bc8261071a565b604082019050919050565b60006105d46019836106c1565b91506105df82610769565b602082019050919050565b6105f381610710565b82525050565b600060208201905061060e6000830184610595565b92915050565b60006040820190506106296000830185610595565b6106366020830184610595565b9392505050565b60006040820190506106526000830185610595565b61065f60208301846105ea565b9392505050565b6000602082019050818103600083015261067f816105a4565b9050919050565b6000602082019050818103600083015261069f816105c7565b9050919050565b60006020820190506106bb60008301846105ea565b92915050565b600082825260208201905092915050565b60006106dd826106f0565b9050919050565b60008115159050919050565b600073ffffffffffffffffffffffffffffffffffffffff82169050919050565b6000819050919050565b7f596f752063616e27742073656e64206d6f6e657920746f20796f757273656c6660008201527f2021000000000000000000000000000000000000000000000000000000000000602082015250565b7f596f7520646f6e74206861766520656e6f756768742044616900000000000000600082015250565b61079b816106d2565b81146107a657600080fd5b50565b6107b2816106e4565b81146107bd57600080fd5b50565b6107c981610710565b81146107d457600080fd5b5056fea26469706673582212200a573baa3f0deaa41b025662f3432b8d9c94e4d533d4f3227bf9fb5bd9efddbf64736f6c63430008020033",
  "immutableReferences": {},
  "source": "// SPDX-License-Identifier: GPL-3.0\r\n// MyDeFiProject.sol\r\npragma solidity 0.8.2;\r\nimport '@openzeppelin/contracts/token/ERC20/IERC20.sol';\r\n \r\ncontract MyDeFiProject {\r\n IERC20 dai;\r\n \r\n constructor(address daiAddress) {\r\n   // injecter l'address du token Dai  utiliser\r\n   dai = IERC20(daiAddress);\r\n }\r\n \r\n //\r\n // fonction qui permet d'effectuer un transfer de dai vers le recipient\r\n // address(this) => current contract addresse\r\n //\r\n function foo(address recipient, uint amount) external {\r\n   require(recipient != msg.sender,\"You can't send money to yourself !\");\r\n   dai.approve(recipient, amount);\r\n   uint limit = dai.allowance(address(this), recipient);\r\n   require(limit >= amount ,\"You dont have enought Dai\");\r\n   dai.transfer(recipient, amount);\r\n }\r\n\r\n  function balanceOf(address account) external view returns (uint){\r\n    return dai.balanceOf(account);\r\n  }\r\n  \r\n\r\n}",
  "sourcePath": "C:\\Users\\Developpeur\\Documents\\Formations\\Ecoles\\Alyra\\BC-Alyra\\Projects\\Truffle\\truffle-tp-dai-testnet\\contracts\\MyDeFiProject.sol",
  "compiler": {
    "name": "solc",
    "version": "0.8.2+commit.661d1103.Emscripten.clang"
  },
  "schemaVersion": "3.4.3",
  "updatedAt": "2021-10-15T15:27:04.479Z",
  "devdoc": {
    "kind": "dev",
    "methods": {},
    "version": 1
  },
  "userdoc": {
    "kind": "user",
    "methods": {},
    "version": 1
  }
}